:020000040000FA
:100000000A128A11EF2FFF1B0D2883137F18831705
:100010000008840A0319FF0A080000308A00040857
:10002000840A82070034013400340A340034643412
:100030000034E8340334103427342034203420349E
:10004000003453344F344C340034543445344D343C
:1000500000342534643400344334413400344834AB
:08006000553400345034003423
:10078800F0007008831203139300080001300A1266
:100798008A11F0230A128A11080083160313141C05
:1007A800D62BD72BD12B08000A128A11D1230A1273
:1007B8008A118312031313080800F100831203132C
:1007C80008147108860088140D30F000F00BEA2B2D
:1007D8008312031388100800F20083120313081011
:1007E8007208860088140630F1003030F000F00BF3
:1007F800FB2BF10BFB2B000083120313881008005E
:10080800F300731D082C092C0E2C72088316031391
:100818009400132C70087204831603139400730851
:1008280071048312031394000800F5007503031D77
:100838001E2C1F2C272C73087F3EF400740883128B
:100848000313C1002E2C7308BF3EF40074088312F2
:100858000313C10041080A128A11F0230A128A11EF
:10086800080083120313B4001730AD002D08A00050
:100878003408AE00AF012E08A1002F08A2003030C6
:100888000A128A11CC250A128A113030F20000307F
:10089800F3000A128A11C7240A128A1108001430B8
:1008A800F4007930F300F30B572CF40B572C5C2C25
:1008B80030300A128A11F0230A128A1130300A12D3
:1008C8008A11F0230A128A1130300A128A11F02391
:1008D8000A128A1138300A128A11F0230A128A1170
:1008E80010300A128A11F0230A128A1101300A12F2
:1008F8008A11F0230A128A1106300A128A11F0238B
:100908000A128A110E300A128A11F0230A128A1169
:100918000800780879040319922C932CC22CFD0145
:10092800FD0AA12C01300310F80DF90DFF3E031D3F
:10093800972C0130FC007C08FD07F91FA42CA52C7E
:10094800962C79087B02031DAB2C78087A02031CCD
:10095800AE2CAF2CB52C7808FA027908031CFB03DF
:10096800FB0201300310F90CF80CFF3E031DB62CF6
:100978000130FD02031DC12CC22CA52C7B08F900F7
:100988007A08F8000800F701F801EC2C77087207DC
:10099800F5007308F4000318F40AF71FD42CF403C5
:1009A8007408F600760883120313FF0075088400A4
:1009B8000A128A1103200A128A110A128A11E123E3
:1009C8000A128A110130F7070318F80A0030F807ED
:1009D80077087207F5007308F4000318F40AF71F84
:1009E800F62CF4037408F600760883120313FF004C
:1009F800750884000A128A1103200A128A11003A23
:100A0800031D072D082DCA2C0800F501F6017008F2
:100A180071040319102D112D482DF701F70A1F2D08
:100A280001300310F00DF10DFF3E031D152D0130AF
:100A3800F4007408F707F11F222D232D142D01301F
:100A48000310F50DF60DFF3E031D242D71087302EA
:100A5800031D302D70087202031C332D342D3B2DDD
:100A68007008F2027108031CF303F30275140130D5
:100A78000310F10CF00CFF3E031D3C2D0130F70272
:100A8800031D472D482D232D7608F1007508F00029
:100A9800080083160317880189018316031386014A
:100AA8001030870088018312031386018801F00142
:100AB800F101F20120300A128A1104240A128A1163
:100AC8000A128A1153240A128A110A128A11CA2395
:100AD8000A128A11F301F30A01300A128A11192441
:100AE8000A128A112030F2008030F3000A128A11AB
:100AF800C7240A128A110330F9007908F30001307B
:100B08000A128A1119240A128A111330F20080304D
:100B1800F3000A128A11C7240A128A110730F90051
:100B28007908F30001300A128A1119240A128A116D
:100B38001D30F2008030F3000A128A11C7240A120D
:100B48008A110A30F9007908F30001300A128A1173
:100B580019240A128A110F30F2008030F3000A12A9
:100B68008A11C7240A128A110E30F9007908F30095
:100B780001300A128A1119240A128A111A30F20055
:100B88008030F3000A128A11C7240A128A11080059
:100B980083120313AB002130A3002308A6009D2E67
:100BA80025302C060319D92DDA2DE62D2C08A300A3
:100BB8002B0884002308831380000130A300230836
:100BC800AB079D2EA7010130A007FF302007840046
:100BD8000A128A110D200A128A11AC00A300A4017E
:100BE8002408003A0319F92D9D2E2308003A031909
:100BF800AF2E643A0319042E0D3A0319042E9D2EC4
:100C08002608840083130008A900840A0008AA00A3
:100C18000230A3002308A607AA1F132E142E1D2E88
:100C28000330A3002308A704A909AA09A90A0319DC
:100C3800AA0AAC01AC0A2C08A3002307013E8400D1
:100C48000A128A110D200A128A11A4000A128A11A6
:100C58000D200A128A11A50025082A02031D362E26
:100C6800240829020318392E3A2E3B2E452E01302E
:100C7800A3002308AC0705302C06031D442E452E7F
:100C88001F2E2708033903194A2E4B2E562E2D30B6
:100C9800A3002B0884002308831380000130A300DD
:100CA8002308AB072C08A3002308A800942E0A30B9
:100CB800F8000030F9002808A3002307013E84004B
:100CC8000A128A110D200A128A11F0000A128A11DA
:100CD8000D200A128A11F1002A08F3002908F200EF
:100CE8000A128A1109250A128A117108FB00700874
:100CF800FA000A128A118D240A128A117808303EE5
:100D080083120313A4002408AC002C08A3002B08AA
:100D180084002308831380000130A3002308AB0755
:100D2800FF30A3002308A807280A031D9C2E9D2E28
:100D38005B2E0130A007FF30200784000A128A11B9
:100D48000D200A128A11A3002308AC002C08031DE9
:100D5800AE2EAF2ED42D2B088400831380010800FB
:100D68000A128A114D250A128A1100300A128A11B4
:100D7800C4230A128A110A128A11D8230A128A1164
:100D880083120313B500B6013508BF003608C0004A
:100D9800073083120313B6007C30B500B50BD22E92
:100DA800B60BD22E000001300A128A11C4230A128F
:100DB8008A110A128A11D8230A128A11831203137C
:100DC800B500B6013508BD003608BE0007308312ED
:100DD8000313B6007C30B500B50BF02EB60BF02E21
:100DE800000002300A128A11C4230A128A110A1258
:100DF8008A11D8230A128A1183120313B500B60187
:100E08003508B7003608B800073083120313B60058
:100E18007C30B500B50B0E2FB60B0E2F000003303B
:100E28000A128A11C4230A128A110A128A11D823B3
:100E38000A128A1183120313B500B6013508BB00E4
:100E48003608BC00073083120313B6007C30B500A7
:100E5800B50B2C2FB60B2C2F000004300A128A1168
:100E6800C4230A128A110A128A11D8230A128A1173
:100E780083120313B500B6013508B9003608BA0065
:100E8800073083120313B6007C30B500B50B4A2F28
:100E9800B60B4A2F0000F301F30A02300A128A1136
:100EA80019240A128A110B30F2008030F3000A125A
:100EB8008A11C7240A128A11F301F30A02300A12AE
:100EC8008A1119240A128A11831203133F080A127D
:100ED8008A1135240A128A11093083120313B500C6
:100EE8003508F30002300A128A1119240A128A11ED
:100EF8000B30F2008030F3000A128A11C7240A125C
:100F08008A11093083120313B5003508F300023043
:100F18000A128A1119240A128A11831203133D082E
:100F28000A128A1135240A128A110E308312031309
:100F3800B5003508F30002300A128A1119240A1282
:100F48008A110B30F2008030F3000A128A11C7248C
:100F58000A128A110E3083120313B5003508F30004
:100F680002300A128A1119240A128A1183120313F1
:100F78003B080A128A1135240A128A110430831296
:100F88000313B5003508F30002300A128A11192438
:100F98000A128A110B30F2008030F3000A128A110B
:100FA800C7240A128A11043083120313B5003508C6
:100FB800F30002300A128A1119240A128A118312C4
:100FC800031339080A128A1135240A128A11B92E14
:100FD8000A128A11002883120313B701B801B90154
:100FE800BA01BB01BC01BD01BE01BF01C001C10105
:080FF80083010A128A11B42ED4
:04400E00F5E0FFFFDB
:00000001FF
