:020000040000FA
:060000000A128A110C280F
:10000800FE00030EF3000A08F4000A128A11092BF5
:100018000A128A110F28F501F601F701F801831376
:100028004530840057300A128A1128250A128A118D
:1000380083010A128A1120280A128A1156220A12EA
:100048008A1183120313A301A30A02300A128A1128
:10005800C6240A128A110B3083120313A2008030BF
:10006800A3000A128A11B8230A128A1183120313F1
:10007800A301A30A02300A128A11C6240A128A119D
:100088008312031349080A128A11A6240A128A1134
:10009800093083120313C3004308A30002300A1275
:1000A8008A11C6240A128A110B3083120313A20084
:1000B8008030A3000A128A11B8230A128A11093063
:1000C80083120313C3004308A30002300A128A11E3
:1000D800C6240A128A11831203134D080A128A11C0
:1000E800A6240A128A110E3083120313C300430890
:1000F800A30002300A128A11C6240A128A110B3090
:1001080083120313A2008030A3000A128A11B823B5
:100118000A128A110E3083120313C3004308A30086
:1001280002300A128A11C6240A128A118312031392
:1001380047080A128A11A6240A128A110430831267
:100148000313C3004308A30002300A128A11C6240D
:100158000A128A110B3083120313A2008030A30005
:100168000A128A11B8230A128A110430831203135F
:10017800C3004308A30002300A128A11C6240A12D7
:100188008A118312031345080A128A11A6240A1237
:100198008A1183160313981CD228D328CD2801303E
:1001A8008312031399008C1EDA28DB28D7281A0833
:1001B800C300C4014308C9004408CA00823083123E
:1001C8000313C400DD30C300C30BE828C40BE828C0
:1001D80083160313981CF128F228EC2802308312A6
:1001E800031399008C1EF928FA28F6281A08C30068
:1001F800C4014308CD004408CE00823083120313A3
:10020800C400DD30C300C30B0729C40B07298316BC
:100218000313981C102911290B2903308312031387
:1002280099008C1E1829192915291A08C300C40118
:100238004308CB004408CC00823083120313C40067
:10024800DD30C300C30B2629C40B262983160313EC
:10025800981C2F2930292A29043083120313990066
:100268008C1E3729382934291A08C300C4014308C9
:10027800C7004408C800823083120313C400DD306D
:10028800C300C30B4529C40B452983160313981CC7
:100298004E294F29492905308312031399008C1ED2
:1002A8005629572953291A08C300C4014308C50011
:1002B8004408C600823083120313C400DD30C30033
:1002C800C30B6429C40B642925280A128A110C2837
:1002D80083120313B9002F30B1003108B4003F2A4C
:1002E80025303A06031979297A2986293A08B1006E
:1002F800390884003108831380000130B1003108C7
:10030800B9073F2AB5010130AE07FF302E07840038
:100318000A128A117F240A128A11BA00B100B201A6
:100328003208003A031999293F2A3108003A03197B
:10033800512A643A0319A4290D3A0319A4293F2A1A
:100348003408840083130008B700840A0008B80042
:100358000230B1003108B407B81FB329B429BD2948
:100368000330B1003108B504B709B809B70A031951
:10037800B80ABA01BA0A3A08B1003107013E840046
:100388000A128A117F240A128A11B2000A128A11EB
:100398007F240A128A11B30033083802031DD629B4
:1003A800320837020318D929DA29DB29E52901306F
:1003B800B1003108BA0705303A06031DE429E529DA
:1003C800BF29350803390319EA29EB29F6292D3005
:1003D800B100390884003108831380000130B1006E
:1003E8003108B9073A08B1003108B600362A0A3090
:1003F800A8000030A9003608B1003107013E84008A
:100408000A128A117F240A128A11A0000A128A117C
:100418007F240A128A11A1003808A3003708A20015
:100428000A128A1172230A128A11831203132108ED
:10043800AB002008AA000A128A11FE230A128A11A8
:10044800831203132808303EB2003208BA003A0873
:10045800B100390884003108831380000130B100ED
:100468003108B907FF30B1003108B607360A031D55
:100478003E2A3F2AFB290130AE07FF302E078400B1
:100488000A128A117F240A128A11B1003108BA00AF
:100498003A08031D502A512A742939088400831305
:1004A80080010800831203138501860188018316E1
:1004B8000313850186019830870088018316031786
:1004C800880189018316031318121811831603175C
:1004D800871519308316031399009A0183120313A1
:1004E8009817181683160313981683120313A0017E
:1004F800A101A20124300A128A11E0240A128A11E9
:100508008B170B17831203138C11831603138C1587
:1005180085160A128A113A240A128A110A128A11B5
:1005280030250A128A1183120313A301A30A01308A
:100538000A128A11C6240A128A1120308312031360
:10054800A2008030A3000A128A11B8230A128A1165
:10055800033083120313A9002908A30001300A12EB
:100568008A11C6240A128A11133083120313A200B7
:100578008030A3000A128A11B8230A128A110730A0
:1005880083120313A9002908A30001300A128A1153
:10059800C6240A128A111D3083120313A200803068
:1005A800A3000A128A11B8230A128A110A30831288
:1005B8000313A9002908A30001300A128A11C624CE
:1005C8000A128A110F3083120313A2008030A3008D
:1005D8000A128A11B8230A128A110E3083120313E1
:1005E800A9002908A30001300A128A11C6240A1298
:1005F8008A111A3083120313A2008030A3000A1252
:100608008A11B8230A128A110800831203138C1D59
:100618000E2B0F2B6B2B0A128A111F250A128A1117
:10062800F100F2017108F5007208F6007508760409
:10063800031D1F2B202B292B8312031349080A1291
:100648008A113E250A128A11682B75037604031D48
:100658002E2B2F2B382B831203134D080A128A11C5
:100668003E250A128A11682B023075067604031D8E
:100678003E2B3F2B482B831203134B080A128A1177
:100688003E250A128A11682B033075067604031D6D
:100698004E2B4F2B582B8312031347080A128A112B
:1006A8003E250A128A11682B043075067604031D4C
:1006B8005E2B5F2B682B8312031345080A128A11DD
:1006C8003E250A128A11682B831203138C117408B1
:1006D8008A00730E8300FE0E7E0E09008312031338
:1006E800A601A7012008210403197B2B7C2BB32B1F
:1006F800A501A50A8A2B01300310A00DA10DFF3E0C
:10070800031D802B0130A4002408A507A11F8D2BF1
:100718008E2B7F2B01300310A60DA70DFF3E031D66
:100728008F2B21082302031D9B2B20082202031C68
:100738009E2B9F2BA62B2008A2022108031CA30393
:10074800A302261401300310A10CA00CFF3E031DC8
:10075800A72B0130A502031DB22BB32B8E2B270824
:10076800A1002608A000080083120313A701A8010E
:10077800E12B27082207A5002308A4000318A40AD0
:10078800A71FC72BA403831203132408A600260857
:10079800FF00250884000A128A1175240A128A119A
:1007A8000A128A110D250A128A11013083120313C5
:1007B800A7070318A80A0030A80727082207A500DA
:1007C8002308A4000318A40AA71FEB2BA403831271
:1007D80003132408A6002608FF00250884000A122F
:1007E8008A1175240A128A11003A031DFC2BFD2B6D
:1007F800BD2B080083120313280829040319052CAC
:10080800062C352CAD01AD0A142C01300310A80DAF
:10081800A90DFF3E031D0A2C0130AC002C08AD07C2
:10082800A91F172C182C092C29082B02031D1E2C74
:1008380028082A02031C212C222C282C2808AA026A
:100848002908031CAB03AB0201300310A90CA80C48
:10085800FF3E031D292C0130AD02031D342C352C1D
:10086800182C2B08A9002A08A800080014308312A5
:100878000313A4007930A300A30B402CA40B402C35
:1008880030300A128A11F7240A128A1130300A12FB
:100898008A11F7240A128A1130300A128A11F724B1
:1008A8000A128A1138300A128A11F7240A128A1198
:1008B80010300A128A11F7240A128A1101300A121A
:1008C8008A11F7240A128A1106300A128A11F724AB
:1008D8000A128A110E300A128A11F7240A128A1192
:1008E8000800FF1B7F2C83137F1883170008840AD6
:1008F8000319FF0A080004308A000408840A8207E2
:100908000034013400340A34003464340034E834E8
:100918000334103427342034203420340034533442
:100928004F344C340034543445344D340034253479
:10093800643400344334413400344834553400348A
:100948005034003483120313C2001730BB003B0835
:10095800AE004208BC00BD013C08AF003D08B00035
:100968003E300A128A116C210A128A113E30831213
:100978000313A2000030A3000A128A11B8230A1236
:100988008A11080083120313A5002503031DCD2C2B
:10099800CE2CD42C23087F3EA4002408F800D92CA0
:1009A8002308BF3EA4002408F80078080A128A1118
:1009B800F7240A128A11080083120313A300231DC7
:1009C800E62CE72CEC2C2208831603139400F12C58
:1009D80020082204831603139400831203132308A8
:1009E80021049400080083120313A20008102208AF
:1009F80086008814063083120313A1002F30A0004C
:100A0800A00B042DA10B042D092D831203138810AC
:100A1800080083120313A100081421088600881413
:100A28000C3083120313A000A00B182D00008312B2
:100A38000313881008000A128A1137250A128A112E
:100A4800831203131308080064008001840A040653
:100A5800031900340406292D01300A128A11F724DB
:100A68000A128A11080083160313141C3C2D3D2D0D
:100A7800372D0800F0007008831203139300080054
:04400E00D4E0FFFFFC
:00000001FF
