:020000040000FA
:100000000A128A11F32FFF1B0D2883137F18831701
:100010000008840A0319FF0A080000308A00040857
:10002000840A82070034013400340A340034643412
:100030000034E83403341034273453344F344C3410
:100040000034543445344D340034253464340034A1
:10005000433441340034483455340034503400348F
:1002A20001300A128A1198210A128A110800640088
:1002B2008001840A040603190034040659290A122B
:1002C2008A117C210A128A11831603131114080061
:1002D2000A128A117C210A128A118316031311153C
:1002E20008000A128A117C210A128A1170088312EC
:1002F200031393000800831603131419812982291A
:100302007C2911081F39031D872988297C290800A7
:10031200F1008312031308147108860088140D304B
:10032200F000F00B92298312031388100800F200E8
:100332008312031308107208860088140630F10035
:100342003030F000F00BA329F10BA3290000831237
:10035200031388100800F5007503031DB129B229A3
:10036200BA2973087F3EF400740883120313C00095
:10037200C1297308BF3EF400740883120313C0003E
:1003820040080A128A1198210A128A11080083125F
:100392000313D5001330CE004E08C1005508CF001C
:1003A200D0014F08C2005008C30051300A128A110E
:1003B200D6240A128A115130F2000030F3000A12D8
:1003C2008A11E5220A128A110800F401F501701C53
:1003D200EB29EC29F2297208F4070318F50A7308CD
:1003E200F50701300310F20DF30DFF3E031DF32953
:1003F20001300310F10CF00CFF3E031DFA297008C6
:100402007104031D052A062AE8297508F1007408FB
:10041200F00008000A128A117C210A128A1183163E
:10042200031391150A128A117C210A128A1183126E
:1004320003131308F200F3017208F4007308F500C5
:100442000A128A117C210A128A1170037104031D97
:100452002B2A2C2A302A831603139112332A83164D
:100462000313911611167508F1007408F0000800C4
:10047200283083120313940083160313910183120D
:1004820003134108C5004208C6004308C7004408D8
:10049200C80002300310C50DC60DC70DC80DFF3EC2
:1004A200031D4B2A4808F3004708F2004608F100F2
:1004B2004508F0000030F7003D30F6000930F50045
:1004C2000030F4000A128A116B230A128A11700892
:1004D200FF3E831603139300940187150716080045
:1004E2001430F4007930F300F30B752AF40B752AFB
:1004F2007A2A30300A128A1198210A128A1130306F
:100502000A128A1198210A128A1130300A128A11AB
:1005120098210A128A1138300A128A1198210A1275
:100522008A1110300A128A1198210A128A11013096
:100532000A128A1198210A128A1106300A128A11A5
:1005420098210A128A110E300A128A1198210A126F
:100552008A110800780879040319B02AB12AE02A1E
:10056200FD01FD0ABF2A01300310F80DF90DFF3E0F
:10057200031DB52A0130FC007C08FD07F91FC22AC1
:10058200C32AB42A79087B02031DC92A78087A0291
:10059200031CCC2ACD2AD32A7808FA027908031C34
:1005A200FB03FB0201300310F90CF80CFF3E031DA4
:1005B200D42A0130FD02031DDF2AE02AC32A7B0868
:1005C200F9007A08F8000800F701F8010A2B770809
:1005D2007207F5007308F4000318F40AF71FF22AF1
:1005E200F4037408F600760883120313FF007508FB
:1005F20084000A128A1103200A128A110A128A112D
:1006020089210A128A110130F7070318F80A00300B
:10061200F80777087207F5007308F4000318F40A64
:10062200F71F142BF4037408F600760883120313E1
:10063200FF00750884000A128A1103200A128A1127
:10064200003A031D252B262BE82A0800F501F601A6
:100652007008710403192E2B2F2B662BF701F70A52
:100662003D2B01300310F00DF10DFF3E031D332B26
:100672000130F4007408F707F11F402B412B322B95
:1006820001300310F50DF60DFF3E031D422B7108DC
:100692007302031D4E2B70087202031C512B522B46
:1006A200592B7008F2027108031CF303F30275144C
:1006B20001300310F10CF00CFF3E031D5A2B0130E8
:1006C200F702031D652B662B412B7608F100750896
:1006D200F00008000030FC000030FB000030FA009F
:1006E2000030F900730872047104700403197A2B44
:1006F2007B2BC82BFD01FD0A8B2B0130F800031068
:10070200F00DF10DF20DF30DF80B802B0130F80016
:100712007808FD07F31F8E2B8F2B7E2B0130F800FC
:100722000310F90DFA0DFB0DFC0DF80B912B73085C
:100732007702031DA62B72087602031DA62B7108F1
:100742007502031DA62B70087402031CA92BAA2B89
:10075200B92B7008F4027108031C710FF5027208BC
:10076200031C720FF6027308031C730FF70279144D
:1007720001300310F30CF20CF10CF00CFF3E031DE0
:10078200BA2B0130FD02031DC72BC82B8F2B7C080F
:10079200F3007B08F2007A08F1007908F000080003
:1007A20083120313C201F71FD72BD82BDF2BF609B5
:1007B200F709F60A0319F70AC201C20AF91FE22B66
:1007C200E32BEC2BF809F909F80A0319F90A0130AD
:1007D200FA007A08C206C301C40176087704031935
:1007E200F32BF42B2B2CC101C10A022C0130031074
:1007F200F60DF70DFF3E031DF82B0130FA007A08C3
:10080200C107F71F052C062CF72B01300310C30D6F
:10081200C40DFF3E031D072C77087902031D132C1C
:1008220076087802031C162C172C1E2C7608F80268
:100832007708031CF903F902431401300310F70C83
:10084200F60CFF3E031D1F2C0130C102031D2A2C92
:100852002B2C062C420803192F2C302C352CC309C3
:10086200C409C30A0319C40A4408F7004308F6007E
:100872000800831603178801890183160313860172
:10088200880183120313860188010030C4000130FD
:10089200C3008630C200A030C1000A128A11392278
:1008A2000A128A11831603131812181183160317DA
:1008B200871519308316031399009A0183120313C3
:1008C200981718168316031398160A128A117122A2
:1008D2000A128A110A128A1151210A128A11F3018B
:1008E200F30A01300A128A11AC210A128A111C3051
:1008F200F2008030F3000A128A11E5220A128A11EC
:10090200033083120313C9004908F30001300A12AD
:100912008A11AC210A128A110F30F2008030F300E2
:100922000A128A11E5220A128A110730831203136E
:10093200C9004908F30001300A128A11AC210A12D7
:100942008A111930F2008030F3000A128A11E5226E
:100952000A128A110A3083120313C9004908F300EC
:1009620001300A128A11AC210A128A110B30F200EC
:100972008030F3000A128A11E5220A128A110E301F
:1009820083120313C9004908F30001300A128A11C5
:10099200AC210A128A111630F2008030F3000A12DA
:1009A2008A11E5220A128A11080083120313CC006D
:1009B2004230C4004408C700A72D25304D06031954
:1009C200E32CE42CF02C4D08C4004C0884004408AD
:1009D200831380000130C4004408CC07A72DC8014E
:1009E2000130C107FF30410784000A128A110D202D
:1009F2000A128A11CD00C400C5014508003A031944
:100A0200032DA72D4408003A0319B92D643A03199E
:100A12000E2D0D3A03190E2DA72D470884008313BE
:100A22000008CA00840A0008CB000230C40044084F
:100A3200C707CB1F1D2D1E2D272D0330C4004408D0
:100A4200C804CA09CB09CA0A0319CB0ACD01CD0AC7
:100A52004D08C4004407013E84000A128A110D2089
:100A62000A128A11C5000A128A110D200A128A116D
:100A7200C60046084B02031D402D45084A020318D2
:100A8200432D442D452D4F2D0130C4004408CD0780
:100A920005304D06031D4E2D4F2D292D48080339D3
:100AA2000319542D552D602D2D30C4004C0884009F
:100AB2004408831380000130C4004408CC074D0869
:100AC200C4004408C9009E2D0A30F8000030F90025
:100AD2004908C4004407013E84000A128A110D200D
:100AE2000A128A11F0000A128A110D200A128A11C2
:100AF200F1004B08F3004A08F2000A128A11272378
:100B02000A128A117108FB007008FA000A128A118F
:100B1200AB220A128A117808303E83120313C500F1
:100B22004508CD004D08C4004C08840044088313D6
:100B320080000130C4004408CC07FF30C4004408E0
:100B4200C907490A031DA62DA72D652D0130C1072E
:100B5200FF30410784000A128A110D200A128A11FD
:100B6200C4004408CD004D08031DB82DB92DDE2C5C
:100B72004C0884008313800108000A128A113A2467
:100B82000A128A11023083120313BC000030BD0026
:100B92000330BE000030BF000430B8000030B9009E
:100BA2000530B6000030B7000A128A1160210A121D
:100BB2008A118130F0000030F1000A128A1172218C
:100BC2000A128A110030F000F1000A128A110B2277
:100BD2000A128A11710883120313BB007008BA004B
:100BE2000A128A1169210A128A110D308312031323
:100BF200D700FB30D600D60BFC2DD70BFC2D0A12EA
:100C02008A1160210A128A117130F0000030F1005D
:100C12000A128A1172210A128A110030F000F100C0
:100C22000A128A110B220A128A1171088312031303
:100C3200BD007008BC000A128A1169210A128A11C9
:100C42000D3083120313D700FB30D600D60B272EAC
:100C5200D70B272E0A128A1160210A128A116130DB
:100C6200F0000030F1000A128A1172210A128A1170
:100C72000030F000F1000A128A110B220A128A11C6
:100C8200710883120313BF007008BE000A128A1192
:100C920069210A128A110D3083120313D700FB3027
:100CA200D600D60B522ED70B522E0A128A11602171
:100CB2000A128A115130F0000030F1000A128A1132
:100CC20072210A128A110030F000F1000A128A1110
:100CD2000B220A128A11710883120313B9007008D9
:100CE200B8000A128A1169210A128A110D30831280
:100CF2000313D700FB30D600D60B7D2ED70B7D2EEB
:100D02000A128A1160210A128A114130F000003061
:100D1200F1000A128A1172210A128A110030F000BF
:100D2200F1000A128A110B220A128A117108831227
:100D32000313B7007008B6000A128A1169210A1259
:100D42008A110D3083120313D700FB30D600D60B65
:100D5200A82ED70BA82EC830F6000030F700831259
:100D620003133D08F1003C08F0002330F20000308C
:100D7200F3000A128A11E6210A128A117108F90097
:100D82007008F8000A128A11D1230A128A11770810
:100D920083120313B1007608B000FF30F600003072
:100DA200F7003908F1003808F0006430F200003032
:100DB200F3000A128A11E6210A128A117108F90057
:100DC2007008F8000A128A11D1230A128A117708D0
:100DD20083120313B3007608B200F301F30A023060
:100DE2000A128A11AC210A128A11831203133A08D9
:100DF2000A128A11C8210A128A11033083120313BC
:100E0200D6005608F30002300A128A11AC210A12E7
:100E12008A118312031330080A128A11C8210A1296
:100E22008A11073083120313D6005608F3000230EA
:100E32000A128A11AC210A128A118312031336088C
:100E42000A128A11C8210A128A110A308312031364
:100E5200D6005608F30002300A128A11AC210A1297
:100E62008A118312031332080A128A11C8210A1244
:100E72008A110E3083120313D6005608F300023093
:100E82000A128A11AC210A128A11831203133E0834
:100E92000A128A11C8210A128A11831203138C1EA4
:100EA200532F542FDA2F1A08D600D7015608B40050
:100EB2005708B500DA2F83160313981C612F622F8F
:100EC2005C2F831203133A0899000D308312031327
:100ED200D700FB30D600D60B6C2FD70B6C2FD52D3D
:100EE20083160313981C762F772F712F8312031307
:100EF200300899000D3083120313D700FB30D6005F
:100F0200D60B812FD70B812FD52D83160313981C57
:100F12008B2F8C2F862F831203133E0899000D30DE
:100F220083120313D700FB30D600D60B962FD70BB4
:100F3200962FD52D83160313981CA02FA12F9B2F1C
:100F420083120313320899000D3083120313D70062
:100F5200FB30D600D60BAB2FD70BAB2FD52D83167C
:100F62000313981CB52FB62FB02F83120313360824
:100F720099000D3083120313D700FB30D600D60B35
:100F8200C02FD70BC02FD52D83160313981CCA2F41
:100F9200CB2FC52F05308312031399000D30831216
:100FA2000313D700FB30D600D60BD52FD70BD52F86
:100FB200D52D3508003A0319DF2FC52F3408013A21
:100FC20003195C2F033A0319712F013A0319862F73
:100FD200073A03199B2F013A0319B02FC52F0A12A2
:100FE2008A11002883132030840041300A128A11AA
:0E0FF20058210A128A1183010A128A11BE2D9B
:04400E00D4E0FFFFFC
:00000001FF
