:020000040000FA
:060000000A128A110C280F
:10000800FE00030EF1000A08F2000A128A111628EF
:100018000A128A110F28F701F801F90183010A125F
:100028008A11AB28831203138C1D1B281C28532804
:100038001412141B202821282528941F2428252839
:100048002D281308F0007008F800141394131416E0
:10005800512883160313941A322833285128141D63
:10006800362837285128831203131308F000700824
:10007800F8008316031314100030831203130518B5
:100088000130930014165330F000F00B4928831602
:1000980003131418502851284B2883128C11720806
:1000A8008A00710E8300FE0E7E0E0900F501F6012E
:1000B800831203130614F230F30062286328F30B4B
:1000C8006128662867280000831203130610183079
:1000D800F400C330F300F30B6F28F40B6F280130E2
:1000E800F5070318F60A0030F607003076023230BA
:1000F80003197502031C812882285C280800F50171
:10010800F6018312031306149F30F3008B28F30BB8
:100118008A288E288F288312031306101930F400BA
:10012800EE30F300F30B9628F40B9628000001300C
:10013800F5070318F60A0030F60700307602323069
:1001480003197502031CA928AA28852808000A1281
:100158008A11EA200A128A110A128A1183200A12C5
:100168008A1183120313051CBA28BB28C2288617D4
:100178000A128A115A200A128A11B5280518C528A8
:10018800C628B52886130A128A1183200A128A11F2
:10019800B5280A128A110C28F30073088316031372
:1001A80093003630831203139400803083160313B0
:1001B800940001309100871507168B170B178312CF
:1001C80003138C11831603138C1508008316031769
:1001D80088018901FF308316031385008601880191
:1001E80083120313860185018601880180300A1273
:0A01F8008A11D0200A128A110800B3
:04400E00D4E0FFFFFC
:00000001FF
